S0140000656E636F6465722D746573742E7372656343
S113000072C000009EC000009CC000009AC00000A6
S113001017C2000096C0000094C0000092C0000007
S113002090C000008EC000008CC000008AC0000098
S113003088C0000086C0000084C0000082C00000A8
S113004080C0000024C200007CC000007AC0000010
S113005078C0000076C0000074C0000072C00000C8
S113006070C00000D0C400006CC000006AC0000072
S113007068C0000066C0000064C0000062C00000E8
S113008060C000005EC000005CC000005AC00000F8
S1130090CAC4000056C0000054C0000052C0000092
S11300A050C000004EC000004CC000004AC0000018
S11300B048C0000046C0000044C0000042C0000028
S11300C040C000003EC000003CC00000BCC40000B2
S11300D038C0000036C0000002C5000032C0000075
S11300E030C00000700211241FBECFEFD1E2DEBF8A
S11300F0CDBF00E00CBF12E0A0E0B2E0EEEAFFE00A
S113010000E00BBF02C007900D92A430B107D9F7ED
S113011022E0A4E0B2E001C01D92A831B207E1F7E9
S113012010E0C3E7D0E000E005C021970109802F6B
S1130130FE0100D7C237D10780E00807B1F788D0A5
S113014034C75ECF7894FC018081813049F4E8980B
S1130150E9E6F0E0808182608083E89AE09A08957D
S1130160823049F4EB98E9E6F0E08081806880838E
S1130170EB9AE39A0895833049F4E998E9E6F0E0CC
S1130180808188608083E99AE19A0895843041F4FB
S1130190EA98E9E6F0E0808180628083EA9AE29A54
S11301A00895E1E8F0E080818B608083EFE6F0E081
S11301B080818260808388E893E1909389008093B2
S11301C0880010928500109284000895CF93DF93E5
S11301D0EC018881813029F450980898589A109A33
S11301E014C0823029F453980B985B9A139A0DC06B
S11301F0833029F451980998599A119A06C0843089
S113020021F452980A985A9A129ACE019BDFCE0191
S1130210C8DFDF91CF910895CF93DF93EC0169811B
S11302207A81072E000C880B990B6DD520E030E005
S113023048E453E4CDD420E030E84BE355E417D64A
S11302402FD57C836B831A821982DF91CF91089515
S1130250CF93DF93CDB7DEB767970FB6F894DEBFC1
S11302600FBECDBF84D377D31A821B821C821D821A
S11302701E821F82188619861A861B861C861D8676
S11302801F861E86198A188A1B8A1A8A1D8A1C8A46
S1130290C12CD12C760197018601B701A601CE01AC
S11302A0029696D262E0CE01019684D2CE010196E6
S11302B004D284E092E08ADF00E010E00F2EFCE03C
S11302C0EF2EF2E0FF2EF02D0F2EF4E0CF2EF2E011
S11302D0DF2EF02DF7018181803419F40E5C1F4F5D
S11302E004C0803211F4025311090D3BF2E01F07E0
S11302F014F00CEB12E01F870E87F6016381748102
S1130300CE0102968BD2BC01990F880B990BFBD4BA
S11303102FE230E246EB5EE3AAD5C2D4CE010196C9
S11303200DD2F70180818130E9F42AE037ED43E210
S11303305CE36A817B818C819D81E1D36A837B83C9
S11303408C839D83CE0102965DD22DEC3CEC4CEC6B
S11303505DE33AD418160CF442C01A821B821C8244
S11303601D823DC0823071F42AE037ED43E25CE344
S11303706A817B818C819D81C3D36A837B838C83D7
S11303809D832DC08430E1F42AE037ED43E25CE341
S11303906A857B858C859D85B2D36A877B878C87AC
S11303A09D87CE01029634D22DEC3CEC4CEC5DE3FF
S11303B00BD41816A4F01A861B861C861D860FC043
S11303C0883069F42AE037ED43E25CE36A857B8593
S11303D08C859D8595D36A877B878C879D87F7015C
S11303E08181813039F41F861E8660E070E0CE0181
S11303F00196A4D1CE01029605D220E030E048EC6B
S113040052E435D54DD4CB01C8D289E0BED2CE0159
S11304100296FED120E030E048EC52E428D540D4E6
S1130420CB01BBD289E0B1D2C801B7D289E0ADD249
S1130430F60183819481B1D280E092E0D6D24ACF92
S11304401F920F920FB60F9211240BB60F928F9337
S11304509F93EF93FF93039B08C0E4E0F2E0818154
S1130460928101969283818307C0E4E0F2E0818166
S11304709281019792838183FF91EF919F918F9154
S11304800F900BBE0F900FBE0F901F9018951F92E8
S11304900F920FB60F9211240BB60F922F933F9326
S11304A04F935F936F937F938F939F93AF93BF9378
S11304B0EF93FF9384E092E0AFDEFF91EF91BF9161
S11304C0AF919F918F917F916F915F914F913F91E8
S11304D02F910F900BBE0F900FBE0F901F90189589
S11304E0E4E0F2E082E080831282118214821382BB
S11304F00895FC0180818130F1F4E7E0F1E080812E
S113050080648083808180688083EAE0F1E0808178
S113051080628083E0E2F1E080818A608083E1E2AE
S1130520F1E080818A61808389EF90E090932701D4
S11305308093260108958230F1F4E7E0F1E08081B0
S113054084608083808188608083EAE0F1E0808138
S113055088608083E0E2F1E0808182688083E1E268
S1130560F1E080818A61808389EF90E09093270194
S11305708093260108958330F1F4E7E0F1E080816F
S113058080618083808180628083EAE0F1E0808101
S113059080618083E0E2F1E0808182628083E1E235
S11305A0F1E080818A61808389EF90E09093270154
S11305B08093260108958430E9F4E7E0F1E0808136
S11305C081608083808182608083E1E0F1E08081CA
S11305D088608083E0EAF0E0808182688083E1EAD9
S11305E0F0E080818A61808389EF90E09093A70096
S11305F08093A6000895FC018081823091F018F464
S1130600813031F008958330A9F08430E1F0089509
S1130610E8E0F1E080818064808380818F7780834B
S11306200895E8E0F1E08081846080838081877FA1
S113063080830895E8E0F1E0808180618083808197
S11306408F7D80830895E8E0F1E08081816080837C
S113065080818D7F80830895FC018081823091F0B8
S113066018F4813031F008958330A9F08430E1F03A
S11306700895E8E0F1E080818F7B80838081806849
S113068080830895E8E0F1E080818B7F808380811E
S1130690886080830895E8E0F1E080818F7E808324
S11306A08081806280830895E8E0F1E080818E7F1C
S11306B080838081826080830895FC018081823000
S11306C0B1F018F4813031F008958330E9F08430CA
S11306D041F10895E8E0F1E080818F7B808380819F
S11306E08F77808310922D0110922C010895E8E0F9
S11306F0F1E080818B7F80838081877F808310926B
S11307002901109228010895E8E0F1E080818F7EAC
S1130710808380818F7D808310922B0110922A0127
S11307200895E8E0F1E080818E7F808380818D7F71
S113073080831092A9001092A80008950F931F932C
S1130740CF93DF938C01EB011C161D060CF453DFD1
S1130750C93FD10544F4DD2344F4D195C195D109B1
S1130760C8017ADF02C0C9EFD0E0F801808182308D
S113077071F018F4813031F018C0833069F084309E
S113078081F013C0D0932D01C0932C010EC0D093DF
S11307902901C093280109C0D0932B01C0932A01D9
S11307A004C0D093A900C093A800DF91CF911F91FA
S11307B00F910895CF93DF93EC0168839ADECE0105
S11307C07CDF60E070E0CE01B9DFDF91CF91089566
S11307D0CF92DF92EF92FF920F931F93FC0140831D
S11307E05183628373830483158326833783C0868E
S11307F0D186E286F3861F910F91FF90EF90DF90F0
S1130800CF900895FC016081718182819381089564
S1130810FC01608571858285938508952F923F92AE
S11308204F925F926F927F928F929F92AF92BF92FC
S1130830CF92DF92EF92FF920F931F93CF93DF93A8
S113084000D000D0CDB7DEB79E838D838B01DC0151
S11308501C96ED90FC901D97E61AF70A1F96FC92E1
S1130860EE921E97B7010F2C000C880B990B4BD2FC
S11308704B015C01AD81BE818D919D910D90BC9128
S1130880A02D89839A83AB83BC83ED81FE8122886A
S113089033882E0C3F1C338A228A4480558066801C
S11308A0778080899189B801681B790B072E000C29
S11308B0880B990B28D2AD81BE8118962D913D915C
S11308C04D915C911B97D3D2EBD16B017C01ED81EF
S11308D0FE81758B648B118B008BC501B4019F77EE
S11308E020E030E040E450E4BED21816CCF4B1016C
S11308F0330C880B990B07D2A3019201B8D2D0D143
S11309002B013C0129813A814B815C81C501B401F1
S1130910AED2C6D1460E571EC2018C199D0902C023
S113092080E090E026960FB6F894DEBF0FBECDBFF0
S1130930DF91CF911F910F91FF90EF90DF90CF90B7
S1130940BF90AF909F908F907F906F905F904F90EB
S11309503F902F9008951092C50087E68093C400BD
S113096088E98093C10086E08093C20008951092C4
S11309700B021092D50087E68093D40088E9809317
S1130980D10086E08093D2000895E0ECF0E09081FD
S113099095FFFDCF8093C60008950F931F93CF93C7
S11309A0DF93CDB7DEB764970FB6F894DEBF0FBE02
S11309B0CDBF4AE0BE016F5F7F4FC4D289818823D7
S11309C049F08E010E5F1F4FE0DFF80181918F0126
S11309D08111FACF64960FB6F894DEBF0FBECDBF77
S11309E0DF91CF911F910F910895CF93DF93EC0185
S11309F08881882329F02196C8DF89918111FCCF51
S1130A00DF91CF9108951F920F920FB60F92112488
S1130A108F938091C600809317028F910F900FBE21
S1130A200F901F9018951F920F920FB60F921124DA
S1130A308F938091CE00809316028F910F900FBEFA
S1130A400F901F9018951F920F920FB60F921124BA
S1130A500BB60F922F938F939F93EF93FF939091E5
S1130A60D6009093140280910A02882339F1809170
S1130A700B02823030F4E82FF0E0E45FFD4F908306
S1130A8013C0833011F0853041F4E82FF0E0E45FC7
S1130A90FD4F21ED290F208307C0E82FF0E0E45F2C
S1130AA0FD4F2EEC290F20838F5F883018F480933C
S1130AB00B0204C010920B0210920A02933E19F426
S1130AC081E080930A02FF91EF919F918F912F9182
S1130AD00F900BBE0F900FBE0F901F9018951F9292
S1130AE00F920FB60F9211248F9380913601809349
S1130AF015028F910F900FBE0F901F9018955058AC
S1130B00BB27AA270ED075C166D130F06BD120F077
S1130B1031F49F3F11F41EF45BC10EF4E095E7FB42
S1130B2051C1E92F77D180F3BA176207730784079D
S1130B30950718F071F49EF58FC10EF4E0950B2E15
S1130B40BA2FA02D0B01B90190010C01CA01A0011B
S1130B501124FF27591B99F0593F50F4503E68F176
S1130B601A16F040A22F232F342F4427585FF3CFB7
S1130B70469537952795A795F0405395C9F77EF488
S1130B801F16BA0B620B730B840BBAF09150A1F0D1
S1130B90FF0FBB1F661F771F881FC2F70EC0BA0F57
S1130BA0621F731F841F48F4879577956795B795DF
S1130BB0F7959E3F08F0B3CF9395880F08F09927D7
S1130BC0EE0F979587950895D9D008F481E008959C
S1130BD00CD00FC107D140F0FED030F021F45F3FBC
S1130BE019F0F0C0511139C1F3C014D198F399230D
S1130BF0C9F35523B1F3951B550BBB27AA276217DD
S1130C007307840738F09F5F5F4F220F331F441F21
S1130C10AA1FA9F333D00E2E3AF0E0E830D0915059
S1130C205040E695001CCAF729D0FE2F27D0660F46
S1130C30771F881FBB1F261737074807AB07B0E885
S1130C4009F0BB0B802DBF01FF2793585F4F2AF09B
S1130C509E3F510568F0B6C000C15F3FECF3983E7B
S1130C60DCF3869577956795B795F7959F5FC9F7F8
S1130C70880F911D9695879597F90895E1E0660F81
S1130C80771F881FBB1F621773078407BA0720F0FA
S1130C90621B730B840BBA0BEE1F88F7E095089563
S1130CA004D06894B111D9C00895BCD088F09F577E
S1130CB090F0B92F9927B751A0F0D1F0660F771FA4
S1130CC0881F991F1AF0BA95C9F712C0B13081F084
S1130CD0C3D0B1E00895C0C0672F782F8827B85FCC
S1130CE039F0B93FCCF3869577956795B395D9F7E5
S1130CF03EF490958095709561957F4F8F4F9F4FEF
S1130D000895E89409C097FB3EF4909580957095FA
S1130D1061957F4F8F4F9F4F9923A9F0F92F96E943
S1130D20BB279395F695879577956795B795F111B8
S1130D30F8CFFAF4BB0F11F460FF1BC06F5F7F4F55
S1130D408F4F9F4F16C0882311F096E911C0772367
S1130D5021F09EE8872F762F05C0662371F096E870
S1130D60862F70E060E02AF09A95660F771F881F3F
S1130D70DAF7880F9695879597F90895990F0008E3
S1130D80550FAA0BE0E8FEEF16161706E807F90759
S1130D90C0F012161306E407F50798F0621B730BF4
S1130DA0840B950B39F40A2661F0232B242B252B75
S1130DB021F408950A2609F4A140A6958FEF811D18
S1130DC0811D089597F99F6780E870E060E00895B9
S1130DD09FEF80EC089500240A941616170618064F
S1130DE00906089500240A9412161306140605062B
S1130DF00895092E0394000C11F4882352F0BB0FBC
S1130E0040F4BF2B11F460FF04C06F5F7F4F8F4F1E
S1130E109F4F089557FD9058440F551F59F05F3F59
S1130E2071F04795880F97FB991F61F09F3F79F008
S1130E3087950895121613061406551FF2CF46958A
S1130E40F1DF08C0161617061806991FF1CF86950C
S1130E507105610508940895E894BB2766277727F0
S1130E60CB0197F908958ADF08F48FEF08950BD02A
S1130E70C0CFB1DF28F0B6DF18F0952309F0A2CF78
S1130E80A7CF1124EACFC6DFA0F3959FD1F3950F26
S1130E9050E0551F629FF001729FBB27F00DB11DFA
S1130EA0639FAA27F00DB11DAA1F649F6627B00D8A
S1130EB0A11D661F829F2227B00DA11D621F739F73
S1130EC0B00DA11D621F839FA00D611D221F749F81
S1130ED03327A00D611D231F849F600D211D822FC8
S1130EE0762F6A2F11249F5750408AF0E1F088230F
S1130EF04AF0EE0FFF1FBB1F661F771F881F91501C
S1130F005040A9F79E3F510570F05CCFA6CF5F3FDC
S1130F10ECF3983EDCF3869577956795B795F7954E
S1130F20E7959F5FC1F7FE2B880F911D96958795D6
S1130F3097F90895EE0FFF1F881F8BBF0790F69156
S1130F40E02D1994BB274A3031F4992322F4BDE2F1
S1130F50909581959F4F01C0BB27FB015527AA2778
S1130F60880F991FAA1FA41710F0A41B8395505132
S1130F70B9F7A05DAA3308F0A95DA193009779F7AA
S1130F80B111B1931192CB0100C0DC01FC01672FB8
S1130F9071917723E1F7329704C07C916D9370834C
S1110FA06291AE17BF07C8F30895F894FFCF0F
S1070FAE0A0D000024
S9030000FC
