S0140000656E636F6465722D746573742E7372656343
S113000072C0000064C10000B0C10000D5C100008E
S113001085C1000096C0000094C0000092C000009A
S113002090C000008EC000008CC000008AC0000098
S113003088C0000086C0000084C0000082C00000A8
S113004080C000007EC000007CC000007AC00000B8
S113005078C0000076C0000074C0000072C00000C8
S113006070C00000D2C300006CC000006AC0000071
S113007068C0000066C0000064C0000062C00000E8
S113008060C000005EC000005CC000005AC00000F8
S1130090CCC3000056C0000054C0000052C0000091
S11300A050C000004EC000004CC000004AC0000018
S11300B048C0000046C0000044C0000042C0000028
S11300C040C000003EC000003CC00000BEC30000B1
S11300D038C0000036C0000002C4000032C0000076
S11300E030C00000030211241FBECFEFD1E2DEBFF7
S11300F0CDBF00E00CBF12E0A0E0B2E0E8E7F9E019
S113010000E00BBF02C007900D92A431B107D9F7EC
S113011022E0A4E1B2E001C01D92AA33B207E1F7E4
S113012010E0C3E7D0E000E005C021970109802F6B
S1130130FE01E5D3C237D10780E00807B1F751D0FB
S113014019C45ECF7894FC018081813049F4E89829
S1130150E9E6F0E0808182608083E89AE09A08957D
S1130160823049F4EB98E9E6F0E08081806880838E
S1130170EB9AE39A0895833049F4E998E9E6F0E0CC
S1130180808188608083E99AE19A0895843041F4FB
S1130190EA98E9E6F0E0808180628083EA9AE29A54
S11301A00895FC019081913029F450980898589A48
S11301B0109A14C0923029F453980B985B9A139AAE
S11301C00DC0933029F451980998599A119A06C090
S11301D0943021F452980A985A9A129ACF01B2CFC5
S11301E00895CF93DF93CDB7DEB767970FB6F89432
S11301F0DEBF0FBECDBFBDD2B0D219821A821B8220
S11302001C821D821E821F82188619861A861B86EE
S11302101C861E861D86188A1F861A8A198A1C8ABD
S11302201B8AC12CD12C760197018601B701A60146
S1130230CE01019678D262E0CE01479666D2CE0115
S11302404796E6D186E292E0ACDF80E292E0A9DF55
S11302508AE192E0A6DF84E192E0A3DF0F2EF6E2CA
S1130260AF2EF2E0BF2EF02D0F2EF0E2CF2EF2E0F3
S1130270DF2EF02D0F2EFAE1EF2EF2E0FF2EF02DFF
S113028004E112E080E092E0B2D2F5018181928132
S113029086D289E07CD285E092E0A9D2F601818100
S11302A092817DD289E073D28AE092E0A0D2F701F4
S11302B08181928174D289E06AD28FE092E097D2F0
S11302C0F801818192816BD28AE061D2DBCF1F92E7
S11302D00F920FB60F9211240BB60F928F939F9328
S11302E0EF93FF93009B08C0E6E2F2E081819281E4
S11302F001969283818307C0E6E2F2E081819281D4
S1130300019792838183FF91EF919F918F910F9039
S11303100BBE0F900FBE0F901F9018951F920F9257
S11303200FB60F9211240BB60F928F939F93EF93F6
S1130330FF93039B08C0E0E2F2E081819281019681
S11303409283818307C0E0E2F2E081819281019788
S113035092838183FF91EF919F918F910F900BBEB8
S11303600F900FBE0F901F9018951F920F920FB60B
S11303700F9211240BB60F928F939F93EF93FF93D9
S1130380019B08C0EAE1F2E08181928101969283A7
S1130390818307C0EAE1F2E081819281019792832F
S11303A08183FF91EF919F918F910F900BBE0F90DE
S11303B00FBE0F901F9018951F920F920FB60F92B9
S11303C011240BB60F928F939F93EF93FF93029B8D
S11303D008C0E4E1F2E081819281019692838183F5
S11303E007C0E4E1F2E081819281019792838183E5
S11303F0FF91EF919F918F910F900BBE0F900FBEC5
S11304000F901F901895E6E2F2E081E0808312825B
S1130410118214821382E0E2F2E082E0808312828D
S1130420118214821382EAE1F2E083E08083128273
S1130430118214821382E4E1F2E084E08083128268
S11304401182148213820895FC0180818130F1F4B9
S1130450E7E0F1E08081806480838081806880832C
S1130460EAE0F1E0808180628083E0E2F1E0808173
S11304708A608083E1E2F1E080818A61808389EF90
S113048090E0909327018093260108958230F1F43F
S1130490E7E0F1E0808184608083808188608083EC
S11304A0EAE0F1E0808188608083E0E2F1E080812D
S11304B082688083E1E2F1E080818A61808389EF50
S11304C090E0909327018093260108958330F1F4FE
S11304D0E7E0F1E0808180618083808180628083B5
S11304E0EAE0F1E0808180618083E0E2F1E08081F4
S11304F082628083E1E2F1E080818A61808389EF16
S113050090E0909327018093260108958430E9F4C4
S1130510E7E0F1E080818160808380818260808374
S1130520E1E0F1E0808188608083E0EAF0E08081AE
S113053082688083E1EAF0E080818A61808389EFC8
S113054090E09093A7008093A6000895FC01808119
S1130550823091F018F4813031F008958330A9F09D
S11305608430E1F00895E8E0F1E0808180648083E4
S113057080818F7780830895E8E0F1E08081846052
S113058080838081877F80830895E8E0F1E0808123
S11305908061808380818F7D80830895E8E0F1E02D
S11305A080818160808380818D7F80830895FC01B8
S11305B08081823091F018F4813031F008958330D5
S11305C0A9F08430E1F00895E8E0F1E080818F7BC8
S11305D080838081806880830895E8E0F1E08081F1
S11305E08B7F80838081886080830895E8E0F1E0D8
S11305F080818F7E80838081806280830895E8E09B
S1130600F1E080818E7F8083808182608083089581
S1130610FC0180818230B1F018F4813031F008950A
S11306208330E9F0843041F10895E8E0F1E080811D
S11306308F7B808380818F77808310922D0110922D
S11306402C010895E8E0F1E080818B7F8083808134
S1130650877F808310922901109228010895E8E091
S1130660F1E080818F7E808380818F7D80831092F2
S11306702B0110922A010895E8E0F1E080818E7F39
S1130680808380818D7F80831092A9001092A800BE
S113069008950F931F93CF93DF938C01EB011C16E6
S11306A01D060CF453DFC93FD10544F4DD2344F4A3
S11306B0D195C195D109C8017ADF02C0C9EFD0E054
S11306C0F8018081823071F018F4813031F018C063
S11306D0833069F0843081F013C0D0932D01C0932E
S11306E02C010EC0D0932901C093280109C0D093D6
S11306F02B01C0932A0104C0D093A900C093A80081
S1130700DF91CF911F910F910895CF93DF93EC0167
S113071068839ADECE017CDF60E070E0CE01B9DF51
S1130720DF91CF910895CF92DF92EF92FF920F93D2
S11307301F93FC0140835183628373830483158375
S113074026833783C086D186E286F3861F910F9174
S1130750FF90EF90DF90CF9008951092C50087E648
S11307608093C40088E98093C10086E08093C2002E
S1130770089510922D021092D50087E68093D4003C
S113078088E98093D10086E08093D2000895E0EC5C
S1130790F0E0908195FFFDCF8093C60008950F93FC
S11307A01F93CF93DF93CDB7DEB764970FB6F8945A
S11307B0DEBF0FBECDBF4AE0BE016F5F7F4FA7D043
S11307C08981882349F08E010E5F1F4FE0DFF80115
S11307D081918F018111FACF64960FB6F894DEBF30
S11307E00FBECDBFDF91CF911F910F910895CF938D
S11307F0DF93EC018881882329F02196C8DF899151
S11308008111FCCFDF91CF9108951F920F920FB603
S11308100F9211248F938091C600809339028F9197
S11308200F900FBE0F901F9018951F920F920FB646
S11308300F9211248F938091CE00809338028F9170
S11308400F900FBE0F901F9018951F920F920FB626
S11308500F9211240BB60F928F939F93EF93FF93F4
S11308609091D6009093360280912C02882329F12E
S113087080912D02823030F4E82FF0E0E25DFD4FEC
S1130880908311C0833011F0853039F4E82FF0E003
S1130890E25DFD4F9F52908306C0E82FF0E0E25DD9
S11308A0FD4F925390838F5F883018F480932D020C
S11308B004C010922D0210922C0280913602833EC5
S11308C019F481E080932C02FF91EF919F918F9115
S11308D00F900BBE0F900FBE0F901F9018951F9294
S11308E00F920FB60F9211248F938091360180934B
S11308F037028F910F900FBE0F901F901895EE0F37
S1130900FF1F881F8BBF0790F691E02D1994BB271A
S11309104A3031F4992322F4BDE2909581959F4F9A
S113092001C0BB27FB015527AA27880F991FAA1FBF
S1130930A41710F0A41B83955051B9F7A05DAA33F6
S113094008F0A95DA193009779F7B111B1931192C1
S1130950CB0100C0DC01FC01672F71917723E1F723
S1130960329704C07C916D9370836291AE17BF0778
S10B0970C8F30895F894FFCFC9
S113097845313A200045323A200045333A200045B3
S1070988343A2000D9
S9030000FC
