S0110000426173655F4F6D6E692E73726563A6
S113000072C0000029C7000075C700009AC700002D
S11300104AC7000098C0000096C0000094C00000C9
S113002092C0000090C000008EC000008CC0000090
S11300308AC0000088C0000086C0000084C00000A0
S113004082C00000A5C700007EC000007CC0000084
S11300507AC0000078C0000076C0000074C00000C0
S113006072C00000ACC300006EC000006CC0000091
S11300706AC0000068C0000066C0000064C00000E0
S113008062C0000060C000005EC000005CC00000F0
S1130090A6C3000058C0000056C0000054C00000B1
S11300A052C0000050C000004EC000004CC0000010
S11300B04AC0000048C0000046C0000044C0000020
S11300C042C0000040C000003EC0000098C30000D1
S11300D03AC0000038C00000DCC3000034C0000097
S11300E032C00000020811241FBECFEFD1E2DEBFF0
S11300F0CDBF00E00CBF12E0A0E0B2E0E2EDF4E11D
S113010000E00BBF02C007900D92A033B107D9F7EE
S113011022E0A0E3B2E001C01D92AC35B207E1F7E2
S113012010E0C3E7D0E000E006C021970109802F6A
S1130130FE010E942C0AC237D10780E00807A9F704
S11301407BD00C94670A5CCF7894FC018081813069
S113015049F4E898E9E6F0E0808182608083E89AD7
S1130160E09A0895823049F4EB98E9E6F0E0808162
S113017080688083EB9AE39A0895833049F4E99880
S1130180E9E6F0E0808188608083E99AE19A089545
S1130190843041F4EA98E9E6F0E08081806280836B
S11301A0EA9AE29A0895E1E8F0E080818B60808326
S11301B0EFE6F0E080818260808388E893E19093A9
S11301C0890080938800109285001092840008951D
S11301D0CF93DF93EC016883613029F45098089839
S11301E0589A109A14C0623029F453980B985B9A69
S11301F0139A0DC0633029F451980998599A119AA9
S113020006C0643021F452980A985A9A129ACE0180
S11302109BDFCE01C8DFDF91CF910895FC0185817A
S11302209681092E000CAA0BBB0B81839283A383B6
S1130230B483168215820895CF93DF93CDB7DEB7CA
S1130240C058D1090FB6F894DEBF0FBECDBF789465
S11302506CD279D2FE01B996CE018F579F4F10828E
S113026011821282138214821582168217821086DA
S11302701186128613861586148617861686118AA9
S1130280108A138A128A158A148A7696E817F9074F
S113029031F7CE01019679D5CE0101960AD3CE016C
S11302A0019653D4CE0101961BD5F6CFFC01808173
S11302B08130F1F4E7E0F1E0808180648083808123
S11302C080688083EAE0F1E0808180628083E0E2FC
S11302D0F1E080818A608083E1E2F1E080818A61DB
S11302E0808389EF90E090932701809326010895FD
S11302F08230F1F4E7E0F1E08081846080838081E2
S113030088608083EAE0F1E0808188608083E0E2B5
S1130310F1E0808182688083E1E2F1E080818A619A
S1130320808389EF90E090932701809326010895BC
S11303308330F1F4E7E0F1E08081806180838081A3
S113034080628083EAE0F1E0808180618083E0E282
S1130350F1E0808182628083E1E2F1E080818A6160
S1130360808389EF90E0909327018093260108957C
S11303708430E9F4E7E0F1E080818160808380816A
S113038082608083E1E0F1E0808188608083E0EA3C
S1130390F0E0808182688083E1EAF0E080818A6114
S11303A0808389EF90E09093A7008093A60008953E
S11303B0FC018081823091F018F4813031F008958D
S11303C08330A9F08430E1F00895E8E0F1E0808121
S11303D08064808380818F7780830895E8E0F1E0F2
S11303E08081846080838081877F80830895E8E0B2
S11303F0F1E080818061808380818F7D8083089596
S1130400E8E0F1E080818160808380818D7F80835A
S11304100895FC018081823091F018F4813031F02C
S113042008958330A9F08430E1F00895E8E0F1E024
S113043080818F7B80838081806880830895E8E059
S1130440F1E080818B7F8083808188608083089540
S1130450E8E0F1E080818F7E808380818062808308
S11304600895E8E0F1E080818E7F8083808182605E
S113047080830895FC0180818230B1F018F48130CA
S113048031F008958330E9F0843041F10895E8E0D3
S1130490F1E080818F7B808380818F7780831092CD
S11304A02D0110922C010895E8E0F1E080818B7F0A
S11304B080838081877F8083109229011092280194
S11304C00895E8E0F1E080818F7E808380818F7DD4
S11304D0808310922B0110922A010895E8E0F1E044
S11304E080818E7F808380818D7F80831092A9009C
S11304F01092A80008950F931F93CF93DF938C015C
S1130500EB011C161D060CF453DFC93FD10544F45E
S1130510DD2344F4D195C195D109C8017ADF02C025
S1130520C9EFD0E0F8018081823071F018F4813095
S113053031F018C0833069F0843081F013C0D09357
S11305402D01C0932C010EC0D0932901C093280122
S113055009C0D0932B01C0932A0104C0D093A900F1
S1130560C093A800DF91CF911F910F910895CF936D
S1130570DF93EC0168839ADECE017CDF60E070E0FB
S1130580CE01B9DFDF91CF910895CF92DF92EF9240
S1130590FF920F931F93FC01408351836283738303
S11305A00483158326833783C086D186E286F38647
S11305B01F910F91FF90EF90DF90CF900895FC0171
S11305C060817181828193810895FC0164817581C8
S11305D0868197810895FC01608571858285938564
S11305E00895FB01808191812817390714F4318320
S11305F02083808191818417950714F4518340836B
S113060008954F925F926F927F928F929F92AF92D2
S1130610BF92CF92DF92EF92FF920F931F93CF93EB
S1130620DF931F921F92CDB7DEB78C017B01FC01D3
S1130630848595856C01C61AD70AD786C686B60105
S11306400D2C000C880B990BF0D5F8012081318119
S1130650428153819ED6B6D54B015C01F801828953
S113066093898C0D9D1D938B828BBC01990F880BF4
S1130670990BDBD5F801248135814681578189D6D0
S1130680A1D57A83698325EA30E04BE55FEFBE01AB
S11306906F5F7F4FC801A5DFF80180899189B70199
S11306A0681B790B072E000C880B990BBED5F8013B
S11306B020853185428553856CD684D52B013C0138
S11306C0F801F18AE08A66857785072E000C880B8D
S11306D0990BABD59F7720E030E040E85FE355D637
S11306E018166CF489819A81880E991E84189508CD
S11306F0F80184899589880E991E958A848AF8015F
S1130700848995890F900F90DF91CF911F910F915C
S1130710FF90EF90DF90CF90BF90AF909F908F901D
S11307207F906F905F904F900895109231021092D5
S1130730D50087E68093D40088E98093D10086E0D1
S11307408093D20008951092350189E18093340199
S113075088E98093310186E0809332010895E0E3D3
S1130760F1E0908195FFFDCF8093360108950F93BA
S11307701F93CF93DF93CDB7DEB764970FB6F8948A
S1130780DEBF0FBECDBF4AE0BE016F5F7F4F6CD6A8
S11307908981882349F08E010E5F1F4FE0DFF80145
S11307A081918F018111FACF64960FB6F894DEBF60
S11307B00FBECDBFDF91CF911F910F9108951F926E
S11307C00F920FB60F9211248F938091C6008093DD
S11307D03D028F910F900FBE0F901F9018951F929E
S11307E00F920FB60F9211248F938091CE008093B5
S11307F03C028F910F900FBE0F901F9018951F927F
S11308000F920FB60F9211240BB60F928F939F93F2
S1130810EF93FF939091D60090933A028091300227
S1130820882329F180913102823030F4E82FF0E0FE
S1130830EE5CFD4F908311C0833011F0853039F4A4
S1130840E82FF0E0EE5CFD4F9F52908306C0E82F46
S1130850F0E0EE5CFD4F925390838F5F883018F484
S11308608093310204C010923102109230028091C0
S11308703A02833E19F481E080933002FF91EF91B4
S11308809F918F910F900BBE0F900FBE0F901F90F2
S113089018951F920F920FB60F9211248F93809187
S11308A0360180933B028F910F900FBE0F901F90E3
S11308B018952F923F924F925F926F927F928F92F0
S11308C09F92AF92BF92CF92DF92EF92FF920F93DB
S11308D01F93CF93DF934C01809132028032B9F49D
S11308E0E401E496740124E2E20EF11C64018CE854
S11308F0C80ED11C1982188260E070E0C701FBDDCC
S113090066969FEFE91AF90ACC15DD0599F78091EF
S11309103202813001F52AE037ED43E25CE3F40171
S113092060A571A582A593A57CD3F40160A771A7E6
S113093082A793A7C401889642DE2AE037ED43E2FA
S11309405CE3D4D388230CF053C0F40110A611A6A1
S113095012A613A64DC0823081F42AE037ED43EA93
S11309605BE3F40160A571A582A593A55BD3F401B3
S113097060A771A782A793A73BC08430F9F42AE04B
S113098037ED43E25CE3F40160A971A982A993A95C
S113099048D3F40160AB71AB82AB93ABC4018896CE
S11309A01ADE2AE037ED43E25CE3A0D3882304F5A2
S11309B0F40110AA11AA12AA13AA1AC0883081F449
S11309C02AE037ED43E25CE3F40160A971A982A94E
S11309D093A928D3F40160AB71AB82AB93AB08C08D
S11309E0803131F4F401828193810596938382836B
S11309F080913302813051F4F4018281938105970F
S1130A00938382838D32914038F481C0F401228132
S1130A1033812D32314030F08CE291E0F401938344
S1130A20828375C0823049F58AE099DEE401A89694
S1130A30CE01C5DD20E030E04AE754E4AAD4C2D3B5
S1130A40CB0195DE80E28BDECE01BFDD20E030E01D
S1130A504AE754E49ED4B6D3CB0189DE80E27FDE3C
S1130A60CE01B9DD20E030E048EC52E492D4AAD3C0
S1130A70CB017DDE8AE073DE4AC0843009F047C0D2
S1130A80C12CD12C760197018601B701A601C401BE
S1130A9088967BDD3CC0C1019EDD6B017C01C101F8
S1130AA094DD2B013C01C1018ADDAB01BC01930142
S1130AB08201CE016ADD6696CA15DB0561F7809175
S1130AC03302883031F4F40122813381358B248B55
S1130AD013C0803149F4F401828193819195819509
S1130AE09109958B848B1EC0803231F4F40182818C
S1130AF09381978B868B16C08034A1F4F401828194
S1130B009381919581959109978B868B0BC0E40114
S1130B10EE965401F0E8AF0EB11C140128E2220E47
S1130B20311CB9CFDF91CF911F910F91FF90EF90BE
S1130B30DF90CF90BF90AF909F908F907F906F90F9
S1130B405F904F903F902F9008952F923F924F9235
S1130B505F926F927F928F929F92AF92BF92CF9249
S1130B60DF92EF92FF920F931F93CF93DF93CDB752
S1130B70DEB7EC970FB6F894DEBF0FBECDBF98AFCB
S1130B808FAB80E3E0E0F2E0DE01119601900D927C
S1130B908A95E1F78FA998AD04969CAF8BAFFE01BF
S1130BA03196FAABE9AB2FA838ACF4E12F0E311C27
S1130BB04C010FA918AD065E1F4F29AE3AAE3EAAEE
S1130BC02DAA18019CAA8BAAF40110821182128208
S1130BD01382A9A8BAA809AD1AADC12CD12CE12C55
S1130BE0F12C24013501F801619171918F01F30118
S1130BF081909190A190B1903F01072E000C880B39
S1130C00990B13D3A5019401C4D39B01AC016C2DA2
S1130C107D2D8E2D9F2D06D2C62ED72EE82EF92E91
S1130C200215130501F74201862F9D2DAE2DBF2D10
S1130C30EBA9FCA980839183A283B383F4E08F0E94
S1130C40911C89A99AA90C969AAB89ABEDA9FEA926
S1130C508E169F0609F0B6CF1F010FA918AD0C5CC4
S1130C601F4FEFA8F8ACFCE1EF0EF11CCBACDCACF1
S1130C70F60161917191819191916F0120E030E0D1
S1130C8048E453E486D320E030E84BE355E432D221
S1130C9099D2F10171876087119211921F01F801B5
S1130CA0718360830A5E1F4F2E143F0409F7EC968C
S1130CB00FB6F894DEBF0FBECDBFDF91CF911F9169
S1130CC00F91FF90EF90DF90CF90BF90AF909F90E7
S1130CD08F907F906F905F904F903F902F900895EA
S1130CE0CF92DF92EF92FF920F931F93CF93DF93F4
S1130CF020913F02222309F100E412E07C0128E262
S1130D00E20EF11CEC01A4960F2EFCE5CF2EF2E0CE
S1130D10DF2EF02DF80161817281C70172DCBC0104
S1130D20CE01E9DB095F1F4FF6E1EF0EF11C2196BE
S1130D300C151D0579F710923F0280913E02833015
S1130D4010F010923E02C2E3D2E08881082E000C1B
S1130D50990B0DDD80E203DD8981082E000C990BCF
S1130D6006DD8AE0FCDCDF91CF911F910F91FF90AB
S1130D70EF90DF90CF900895E2E3F2E08AE392E00F
S1130D801192E817F907E1F708952F923F924F92D5
S1130D905F926F927F928F929F92AF92BF92CF9207
S1130DA0DF92EF92FF920F931F93CF93DF932C0167
S1130DB082E390E0F201938382833201F4E06F0EC8
S1130DC0711C420184E1880E911C0F2EF0E42F2E39
S1130DD0F2E03F2EF02D5201E8E2AE0EB11CC1E06C
S1130DE0D0E0F30111921192119211923F01F4019A
S1130DF0119211924F01CE0183966C2F840D951D93
S1130E00B6DB6C2FC101E4D9C12CD12C760197013A
S1130E108601B701A601C501B8DB2196F7E02F0EC4
S1130E20311C86E1A80EB11CC530D105D1F6C20132
S1130E30A3DFDF91CF911F910F91FF90EF90DF908F
S1130E40CF90BF90AF909F908F907F906F905F9066
S1130E504F903F902F9008951F920F920FB60F92CC
S1130E6011240BB60F928F939F93EF93FF93009BE4
S1130E7008C0E0E4F2E0858196810196968385833B
S1130E8007C0E0E4F2E0858196810197968385832B
S1130E90FF91EF919F918F910F900BBE0F900FBE1A
S1130EA00F901F9018951F920F920FB60F92112456
S1130EB00BB60F928F939F93EF93FF93039B08C0FE
S1130EC0E0E4F2E08485958501969587848707C0E0
S1130ED0E0E4F2E084859585019795878487FF9106
S1130EE0EF919F918F910F900BBE0F900FBE0F90BB
S1130EF01F9018951F920F920FB60F9211240BB6E4
S1130F000F928F939F93EF93FF93019B08C0E0E4AC
S1130F10F2E0838994890196948B838B07C0E0E483
S1130F20F2E0838994890197948B838BFF91EF91ED
S1130F309F918F910F900BBE0F900FBE0F901F903B
S1130F4018951F920F920FB60F9211240BB60F92A1
S1130F508F939F93EF93FF93029B08C0E0E4F2E02A
S1130F60828D938D0196938F828F07C0E0E4F2E027
S1130F70828D938D0197938F828FFF91EF919F9133
S1130F808F910F900BBE0F900FBE0F901F9018956E
S1130F901F920F920FB60F9211240BB60F922F933C
S1130FA03F934F935F936F937F938F939F93AF93ED
S1130FB0BF93EF93FF9380E492E030D987E492E00B
S1130FC02DD98EE492E02AD985E592E027D9809143
S1130FD03E028F5F80933E0281E080933F02FF9147
S1130FE0EF91BF91AF919F918F917F916F915F919D
S1130FF04F913F912F910F900BBE0F900FBE0F900A
S11310001F901895E0E4F2E08CE592E011821282E0
S113101013821482168215823796E817F907B1F7FE
S113102008955058BB27AA270ED075C166D130F059
S11310306BD120F031F49F3F11F41EF45BC10EF428
S1131040E095E7FB51C1E92F77D180F3BA17620726
S113105073078407950718F071F49EF58FC10EF499
S1131060E0950B2EBA2FA02D0B01B90190010C01B4
S1131070CA01A0011124FF27591B99F0593F50F4CC
S1131080503E68F11A16F040A22F232F342F442724
S1131090585FF3CF469537952795A795F04053951C
S11310A0C9F77EF41F16BA0B620B730B840BBAF0EC
S11310B09150A1F0FF0FBB1F661F771F881FC2F757
S11310C00EC0BA0F621F731F841F48F4879577956B
S11310D06795B795F7959E3F08F0B3CF9395880F22
S11310E008F09927EE0F979587950895D9D008F4BD
S11310F081E008950CD00FC107D140F0FED030F04C
S113110021F45F3F19F0F0C0511139C1F3C014D17B
S113111098F39923C9F35523B1F3951B550BBB27BA
S1131120AA2762177307840738F09F5F5F4F220F67
S1131130331F441FAA1FA9F333D00E2E3AF0E0E860
S113114030D091505040E695001CCAF729D0FE2FAC
S113115027D0660F771F881FBB1F2617370748073E
S1131160AB07B0E809F0BB0B802DBF01FF279358F4
S11311705F4F2AF09E3F510568F0B6C000C15F3F43
S1131180ECF3983EDCF3869577956795B795F795DC
S11311909F5FC9F7880F911D9695879597F90895D4
S11311A0E1E0660F771F881FBB1F62177307840770
S11311B0BA0720F0621B730B840BBA0BEE1F88F77F
S11311C0E095089504D06894B111D9C00895BCD0B5
S11311D088F09F5790F0B92F9927B751A0F0D1F01C
S11311E0660F771F881F991F1AF0BA95C9F712C0A6
S11311F0B13081F0C3D0B1E00895C0C0672F782F1B
S11312008827B85F39F0B93FCCF386957795679511
S1131210B395D9F73EF490958095709561957F4F7D
S11312208F4F9F4F0895E89409C097FB3EF4909523
S11312308095709561957F4F8F4F9F4F9923A9F0AB
S1131240F92F96E9BB279395F6958795779567953A
S1131250B795F111F8CFFAF4BB0F11F460FF1BC07E
S11312606F5F7F4F8F4F9F4F16C0882311F096E911
S113127011C0772321F09EE8872F762F05C06623BF
S113128071F096E8862F70E060E02AF09A95660F78
S1131290771F881FDAF7880F9695879597F9089531
S11312A0990F0008550FAA0BE0E8FEEF1616170673
S11312B0E807F907C0F012161306E407F50798F0DB
S11312C0621B730B840B950B39F40A2661F0232BF4
S11312D0242B252B21F408950A2609F4A140A69570
S11312E08FEF811D811D089597F99F6780E870E055
S11312F060E008959FEF80EC089500240A94161688
S1131300170618060906089500240A9412161306EF
S1131310140605060895092E0394000C11F488237D
S113132052F0BB0F40F4BF2B11F460FF04C06F5F99
S11313307F4F8F4F9F4F089557FD9058440F551F6F
S113134059F05F3F71F04795880F97FB991F61F043
S11313509F3F79F087950895121613061406551FBA
S1131360F2CF4695F1DF08C0161617061806991F26
S1131370F1CF86957105610508940895E894BB271B
S113138066277727CB0197F908958ADF08F48FEF52
S113139008950BD0C0CFB1DF28F0B6DF18F0952345
S11313A009F0A2CFA7CF1124EACFC6DFA0F3959FFF
S11313B0D1F3950F50E0551F629FF001729FBB2738
S11313C0F00DB11D639FAA27F00DB11DAA1F649FE4
S11313D06627B00DA11D661F829F2227B00DA11D97
S11313E0621F739FB00DA11D621F839FA00D611D1D
S11313F0221F749F3327A00D611D231F849F600D3E
S1131400211D822F762F6A2F11249F5750408AF076
S1131410E1F088234AF0EE0FFF1FBB1F661F771F02
S1131420881F91505040A9F79E3F510570F05CCF42
S1131430A6CF5F3FECF3983EDCF3869577956795EE
S1131440B795F795E7959F5FC1F7FE2B880F911D20
S11314509695879597F90895EE0FFF1F881F8BBF08
S11314600790F691E02D1994BB274A3031F4992363
S113147022F4BDE2909581959F4F01C0BB27FB01EB
S11314805527AA27880F991FAA1FA41710F0A41B79
S113149083955051B9F7A05DAA3308F0A95DA193D3
S11314A0009779F7B111B1931192CB0100C0DC011F
S11314B0FC01672F71917723E1F7329704C07C9187
S11314C06D9370836291AE17BF07C8F30895F894C3
S10514D0FFCF48
S11314D2F4FD34BFF4FD343F0000803FF4FD34BF1B
S11314E2F4FD34BF0000803FF4FD343FF4FD34BF0B
S11314F20000803FF4FD343FF4FD343F0000803FA0
S9030000FC
