:1000000072C000009EC000009CC000009AC00000AA
:1000100090C2000096C0000094C0000092C0000092
:1000200090C000008EC000008CC000008AC000009C
:1000300088C0000086C0000084C0000082C00000AC
:1000400080C00000ADC200007CC000007AC000008B
:1000500078C0000076C0000074C0000072C00000CC
:1000600070C000006CC500006CC000006AC00000D9
:1000700068C0000066C0000064C0000062C00000EC
:1000800060C000005EC000005CC000005AC00000FC
:1000900066C5000056C0000054C0000052C00000F9
:1000A00050C000004EC000004CC000004AC000001C
:1000B00048C0000046C0000044C0000042C000002C
:1000C00040C000003EC000003CC0000058C5000019
:1000D00038C0000036C000009EC5000032C00000DD
:1000E00030C00000F90211241FBECFEFD1E2DEBF05
:1000F000CDBF00E00CBF12E0A0E0B2E0E6EEF0E120
:1001000000E00BBF02C007900D92A430B107D9F7F1
:1001100022E0A4E0B2E001C01D92AB32B207E1F7E9
:1001200010E0C3E7D0E000E005C021970109802F6F
:10013000FE019CD7C237D10780E00807B1F7B6D0DF
:10014000D0C75ECF7894FC018081813049F4E89873
:10015000E9E6F0E0808182608083E89AE09A089581
:10016000823049F4EB98E9E6F0E080818068808392
:10017000EB9AE39A0895833049F4E998E9E6F0E0D0
:10018000808188608083E99AE19A0895843041F4FF
:10019000EA98E9E6F0E0808180628083EA9AE29A58
:1001A0000895E1E8F0E080818B608083EFE6F0E085
:1001B00080818260808388E893E1909389008093B6
:1001C000880010928500109284000895CF93DF93E9
:1001D000EC018881813029F450980898589A109A37
:1001E00014C0823029F453980B985B9A139A0DC06F
:1001F000833029F451980998599A119A06C084308D
:1002000021F452980A985A9A129ACE019BDFCE0195
:10021000C8DFDF91CF910895CF92DF92EF92FF92E6
:100220000F931F93FC01C584D684E784F088C186B0
:10023000D286E386F4860189128923893489058769
:1002400016872787308B458956896789708D418B42
:10025000528B638B748B85819681A781B085858B4A
:10026000968BA78BB08F0C0D1D1D2E1D3F1D400FB3
:10027000511F621F731F840F951FA61FB71FB595CF
:10028000A79597958795B595A79597958795818318
:100290009283A383B48315821682178210861F91DE
:1002A0000F91FF90EF90DF90CF900895CF93DF9361
:1002B000CDB7DEB769970FB6F894DEBF0FBECDBFDE
:1002C000F2D3E5D31A821B821C821D821E821F82FA
:1002D000188619861A861B861C861D861F861E8612
:1002E000198A188A1B8A1A8A1D8A1C8A1F8A1E8AE2
:1002F0000F2EFFE1CF2EF5E8DF2EFBE6EF2EF0E428
:10030000FF2EF02D00E010E0980149E25CE56FE47B
:100310007FE3CE010296E9D262E0CE010196D7D208
:10032000CE01019657D284E092E050DFA12CB12C8F
:100330000F2EFFE18F2EF2E09F2EF02D0F2EFCEB03
:100340004F2EF02D6894552451F80F2EF4E06F2EA7
:10035000F2E07F2EF02DF4019081903141F4F2E330
:10036000AF0EB11CF4018181813089F406C0F40123
:100370008181813031F4903231F0F2E3AF1AB1086B
:1003800036C0903221F41F861E86A12CB12C8230FB
:1003900009F02DC08AE095D3CE010296C0D220E0AC
:1003A00030E048EC52E4FFD517D5CB0192D380E280
:1003B00088D3CE010296B9D220E030E04AE754E477
:1003C000F2D50AD5CB0185D380E27BD3CE0102964C
:1003D000B2D220E030E048EC52E4E5D5FDD4CB01C8
:1003E00078D380E26ED3C50174D38AE06AD3F40176
:1003F0008181843051F4C12CD12C76019701860182
:10040000B701A601CE01029670D2FDEBAF16F2E065
:10041000BF0614F0A42CB52CBB2014F4A12CB12CD5
:10042000B5010B2C000C880B990B09D520E030E0AE
:1004300048E453E4B8D520E030E84BE355E464D415
:10044000CBD46B017C017F876E87F3016181728160
:10045000CE01029686D2BC01CE010196FCD1F401F8
:1004600080818130E9F42AE037ED43E25CE36A8180
:100470007B818C819D81DFD36A837B838C839D8389
:10048000CE0102964CD22AE037ED43E25CE338D449
:1004900088230CF042C01A821B821C821D823DC040
:1004A000823071F42AE037ED43E25CE36A817B81BC
:1004B0008C819D81C1D36A837B838C839D832DC076
:1004C0008430E1F42AE037ED43E25CE36A857B8522
:1004D0008C859D85B0D36A877B878C879D87CE016D
:1004E000029629D22AE037ED43E25CE309D488235F
:1004F000A4F41A861B861C861D860FC0883069F4FA
:100500002AE037ED43E25CE36A857B858C859D8537
:1005100093D36A877B878C879D87C601DAD280E276
:10052000D0D2F30181819281D4D280E092E0F9D2DD
:1005300012CF1F920F920FB60F9211240BB60F928B
:100540008F939F93AF93BF93EF93FF93039B0EC043
:10055000E4E0F2E085819681A781B0850196A11D36
:10056000B11D85839683A783B0870DC0E4E0F2E0D8
:1005700085819681A781B0850197A109B1098583FD
:100580009683A783B087FF91EF91BF91AF919F9121
:100590008F910F900BBE0F900FBE0F901F9018956C
:1005A0001F920F920FB60F9211240BB60F922F933A
:1005B0003F934F935F936F937F938F939F93AF93EB
:1005C000BF93EF93FF9384E092E026DEFF91EF91DB
:1005D000BF91AF919F918F917F916F915F914F915B
:1005E0003F912F910F900BBE0F900FBE0F901F9059
:1005F0001895E4E0F2E082E0808311821282138297
:10060000148215821682178210860895FC0180815B
:100610008130F1F4E7E0F1E08081806480838081C3
:1006200080688083EAE0F1E0808180628083E0E29C
:10063000F1E080818A608083E1E2F1E080818A617B
:10064000808389EF90E0909327018093260108959D
:100650008230F1F4E7E0F1E0808184608083808182
:1006600088608083EAE0F1E0808188608083E0E256
:10067000F1E0808182688083E1E2F1E080818A613B
:10068000808389EF90E0909327018093260108955D
:100690008330F1F4E7E0F1E0808180618083808144
:1006A00080628083EAE0F1E0808180618083E0E223
:1006B000F1E0808182628083E1E2F1E080818A6101
:1006C000808389EF90E0909327018093260108951D
:1006D0008430E9F4E7E0F1E080818160808380810B
:1006E00082608083E1E0F1E0808188608083E0EADD
:1006F000F0E0808182688083E1EAF0E080818A61B5
:10070000808389EF90E09093A7008093A6000895DE
:10071000FC018081823091F018F4813031F008952D
:100720008330A9F08430E1F00895E8E0F1E08081C1
:100730008064808380818F7780830895E8E0F1E092
:100740008081846080838081877F80830895E8E052
:10075000F1E080818061808380818F7D8083089536
:10076000E8E0F1E080818160808380818D7F8083FB
:100770000895FC018081823091F018F4813031F0CD
:1007800008958330A9F08430E1F00895E8E0F1E0C5
:1007900080818F7B80838081806880830895E8E0FA
:1007A000F1E080818B7F80838081886080830895E1
:1007B000E8E0F1E080818F7E8083808180628083A9
:1007C0000895E8E0F1E080818E7F808380818260FF
:1007D00080830895FC0180818230B1F018F481306B
:1007E00031F008958330E9F0843041F10895E8E074
:1007F000F1E080818F7B808380818F77808310926E
:100800002D0110922C010895E8E0F1E080818B7FAA
:1008100080838081877F8083109229011092280134
:100820000895E8E0F1E080818F7E808380818F7D74
:10083000808310922B0110922A010895E8E0F1E0E4
:1008400080818E7F808380818D7F80831092A9003C
:100850001092A80008950F931F93CF93DF938C01FC
:10086000EB011C161D060CF453DFC93FD10544F4FF
:10087000DD2344F4D195C195D109C8017ADF02C0C6
:10088000C9EFD0E0F8018081823071F018F4813036
:1008900031F018C0833069F0843081F013C0D093F8
:1008A0002D01C0932C010EC0D0932901C0932801C3
:1008B00009C0D0932B01C0932A0104C0D093A90092
:1008C000C093A800DF91CF911F910F910895CF930E
:1008D000DF93EC0168839ADECE017CDF60E070E09C
:1008E000CE01B9DFDF91CF910895CF92DF92EF92E1
:1008F000FF920F931F93FC014083518362837383A4
:100900000483158326833783C086D186E286F386E7
:100910001F910F91FF90EF90DF90CF900895FC0111
:1009200060817181828193810895FC016481758168
:10093000868197810895FC01608571858285938504
:100940000895FB01808191812817390714F43183C0
:100950002083808191818417950714F4518340830B
:1009600008954F925F926F927F928F929F92AF9273
:10097000BF92CF92DF92EF92FF920F931F93CF938C
:10098000DF931F921F92CDB7DEB78C017B01FC0174
:10099000648575856B01CE18DF08D786C686B601DB
:1009A0000D2C000C880B990B4AD2F8012081318163
:1009B00042815381F8D210D24B015C01F801628967
:1009C00073896C0D7D1D738B628B072E000C880B59
:1009D000990B35D2F8012481358146815781E3D2C4
:1009E000FBD17A83698325EA30E04BE55FEFBE01F6
:1009F0006F5F7F4FC801A5DFF80180899189B7013A
:100A0000681B790B072E000C880B990B18D2F80184
:100A10002085318542855385C6D2DED12B013C012C
:100A2000F801778B668BF18AE08A66857785072ED9
:100A3000000C880B990B03D29F7720E030E040E850
:100A40005FE3ADD218166CF489819A81880E991EE5
:100A500084189508F80184899589880E991E958ACD
:100A6000848AF801848995890F900F90DF91CF9146
:100A70001F910F91FF90EF90DF90CF90BF90AF90BC
:100A80009F908F907F906F905F904F9008951092FD
:100A9000C50087E68093C40088E98093C10086E0A2
:100AA0008093C200089510921E021092D50087E62E
:100AB0008093D40088E98093D10086E08093D200AF
:100AC0000895E0ECF0E0908195FFFDCF8093C600A3
:100AD00008950F931F93CF93DF93CDB7DEB764973D
:100AE0000FB6F894DEBF0FBECDBF4AE0BE016F5F08
:100AF0007F4FC4D28981882349F08E010E5F1F4F3A
:100B0000E0DFF80181918F018111FACF64960FB671
:100B1000F894DEBF0FBECDBFDF91CF911F910F9133
:100B20000895CF93DF93EC018881882329F02196E3
:100B3000C8DF89918111FCCFDF91CF9108951F9279
:100B40000F920FB60F9211248F938091C60080935D
:100B50002A028F910F900FBE0F901F9018951F9231
:100B60000F920FB60F9211248F938091CE00809335
:100B700029028F910F900FBE0F901F9018951F9212
:100B80000F920FB60F9211240BB60F922F938F93E3
:100B90009F93EF93FF939091D600909327028091BB
:100BA0001D02882339F180911E02823030F4E82F33
:100BB000F0E0E15EFD4F908313C0833011F085308B
:100BC00041F4E82FF0E0E15EFD4F21ED290F208395
:100BD00007C0E82FF0E0E15EFD4F2EEC290F2083E7
:100BE0008F5F883018F480931E0204C010921E029A
:100BF00010921D02933E19F481E080931D02FF9133
:100C0000EF919F918F912F910F900BBE0F900FBE80
:100C10000F901F9018951F920F920FB60F921124EC
:100C20008F9380913601809328028F910F900FBE91
:100C30000F901F9018955058BB27AA270ED075C14A
:100C400066D130F06BD120F031F49F3F11F41EF4E7
:100C50005BC10EF4E095E7FB51C1E92F77D180F33A
:100C6000BA17620773078407950718F071F49EF5A9
:100C70008FC10EF4E0950B2EBA2FA02D0B01B901F8
:100C800090010C01CA01A0011124FF27591B99F002
:100C9000593F50F4503E68F11A16F040A22F232F0E
:100CA000342F4427585FF3CF469537952795A7955E
:100CB000F0405395C9F77EF41F16BA0B620B730B05
:100CC000840BBAF09150A1F0FF0FBB1F661F771F76
:100CD000881FC2F70EC0BA0F621F731F841F48F42B
:100CE000879577956795B795F7959E3F08F0B3CFB1
:100CF0009395880F08F09927EE0F9795879508959B
:100D0000D9D008F481E008950CD00FC107D140F08C
:100D1000FED030F021F45F3F19F0F0C0511139C11D
:100D2000F3C014D198F39923C9F35523B1F3951B5C
:100D3000550BBB27AA2762177307840738F09F5FFC
:100D40005F4F220F331F441FAA1FA9F333D00E2E6B
:100D50003AF0E0E830D091505040E695001CCAF7D8
:100D600029D0FE2F27D0660F771F881FBB1F26179D
:100D700037074807AB07B0E809F0BB0B802DBF0170
:100D8000FF2793585F4F2AF09E3F510568F0B6C089
:100D900000C15F3FECF3983EDCF38695779567954D
:100DA000B795F7959F5FC9F7880F911D9695879521
:100DB00097F90895E1E0660F771F881FBB1F621740
:100DC00073078407BA0720F0621B730B840BBA0BFE
:100DD000EE1F88F7E095089504D06894B111D9C04A
:100DE0000895BCD088F09F5790F0B92F9927B7513C
:100DF000A0F0D1F0660F771F881F991F1AF0BA95DF
:100E0000C9F712C0B13081F0C3D0B1E00895C0C0BD
:100E1000672F782F8827B85F39F0B93FCCF38695D4
:100E200077956795B395D9F73EF490958095709531
:100E300061957F4F8F4F9F4F0895E89409C097FBAE
:100E40003EF490958095709561957F4F8F4F9F4FA1
:100E50009923A9F0F92F96E9BB279395F6958795E5
:100E600077956795B795F111F8CFFAF4BB0F11F4A8
:100E700060FF1BC06F5F7F4F8F4F9F4F16C088234F
:100E800011F096E911C0772321F09EE8872F762F85
:100E900005C0662371F096E8862F70E060E02AF0C6
:100EA0009A95660F771F881FDAF7880F96958795B2
:100EB00097F90895990F0008550FAA0BE0E8FEEF87
:100EC00016161706E807F907C0F012161306E4070E
:100ED000F50798F0621B730B840B950B39F40A2607
:100EE00061F0232B242B252B21F408950A2609F4E5
:100EF000A140A6958FEF811D811D089597F99F67E9
:100F000080E870E060E008959FEF80EC0895002491
:100F10000A941616170618060906089500240A945E
:100F200012161306140605060895092E0394000CE4
:100F300011F4882352F0BB0F40F4BF2B11F460FF73
:100F400004C06F5F7F4F8F4F9F4F089557FD90589C
:100F5000440F551F59F05F3F71F04795880F97FB7D
:100F6000991F61F09F3F79F0879508951216130637
:100F70001406551FF2CF4695F1DF08C01616170666
:100F80001806991FF1CF869571056105089408959B
:100F9000E894BB2766277727CB0197F908958ADF66
:100FA00008F48FEF08950BD0C0CFB1DF28F0B6DF83
:100FB00018F0952309F0A2CFA7CF1124EACFC6DFFE
:100FC000A0F3959FD1F3950F50E0551F629FF0015C
:100FD000729FBB27F00DB11D639FAA27F00DB11DB5
:100FE000AA1F649F6627B00DA11D661F829F22273E
:100FF000B00DA11D621F739FB00DA11D621F839FC5
:10100000A00D611D221F749F3327A00D611D231F9A
:10101000849F600D211D822F762F6A2F11249F57E8
:1010200050408AF0E1F088234AF0EE0FFF1FBB1F0B
:10103000661F771F881F91505040A9F79E3F5105AA
:1010400070F05CCFA6CF5F3FECF3983EDCF3869563
:1010500077956795B795F795E7959F5FC1F7FE2B55
:10106000880F911D9695879597F90895EE0FFF1FAC
:10107000881F8BBF0790F691E02D1994BB274A304B
:1010800031F4992322F4BDE2909581959F4F01C0E0
:10109000BB27FB015527AA27880F991FAA1FA41752
:1010A00010F0A41B83955051B9F7A05DAA3308F046
:1010B000A95DA193009779F7B111B1931192CB017A
:1010C00000C0DC01FC01672F71917723E1F73297B3
:1010D00004C07C916D9370836291AE17BF07C8F313
:0610E0000895F894FFCF13
:0410E6000D0A0000EF
:00000001FF
